{
  "contractName": "vrfFinal",
  "abi": [
    {
      "inputs": [
        {
          "internalType": "uint256",
          "name": "subscriptionId",
          "type": "uint256"
        }
      ],
      "stateMutability": "nonpayable",
      "type": "constructor"
    },
    {
      "inputs": [
        {
          "internalType": "address",
          "name": "have",
          "type": "address"
        },
        {
          "internalType": "address",
          "name": "want",
          "type": "address"
        }
      ],
      "name": "OnlyCoordinatorCanFulfill",
      "type": "error"
    },
    {
      "inputs": [
        {
          "internalType": "address",
          "name": "have",
          "type": "address"
        },
        {
          "internalType": "address",
          "name": "owner",
          "type": "address"
        },
        {
          "internalType": "address",
          "name": "coordinator",
          "type": "address"
        }
      ],
      "name": "OnlyOwnerOrCoordinator",
      "type": "error"
    },
    {
      "inputs": [],
      "name": "ZeroAddress",
      "type": "error"
    },
    {
      "anonymous": false,
      "inputs": [
        {
          "indexed": false,
          "internalType": "address",
          "name": "vrfCoordinator",
          "type": "address"
        }
      ],
      "name": "CoordinatorSet",
      "type": "event"
    },
    {
      "anonymous": false,
      "inputs": [
        {
          "indexed": true,
          "internalType": "uint256",
          "name": "requestId",
          "type": "uint256"
        },
        {
          "indexed": true,
          "internalType": "uint256[]",
          "name": "result",
          "type": "uint256[]"
        }
      ],
      "name": "DiceLanded",
      "type": "event"
    },
    {
      "anonymous": false,
      "inputs": [
        {
          "indexed": true,
          "internalType": "uint256",
          "name": "requestId",
          "type": "uint256"
        },
        {
          "indexed": true,
          "internalType": "address",
          "name": "roller",
          "type": "address"
        }
      ],
      "name": "DiceRolled",
      "type": "event"
    },
    {
      "anonymous": false,
      "inputs": [
        {
          "indexed": true,
          "internalType": "address",
          "name": "from",
          "type": "address"
        },
        {
          "indexed": true,
          "internalType": "address",
          "name": "to",
          "type": "address"
        }
      ],
      "name": "OwnershipTransferRequested",
      "type": "event"
    },
    {
      "anonymous": false,
      "inputs": [
        {
          "indexed": true,
          "internalType": "address",
          "name": "from",
          "type": "address"
        },
        {
          "indexed": true,
          "internalType": "address",
          "name": "to",
          "type": "address"
        }
      ],
      "name": "OwnershipTransferred",
      "type": "event"
    },
    {
      "inputs": [],
      "name": "acceptOwnership",
      "outputs": [],
      "stateMutability": "nonpayable",
      "type": "function"
    },
    {
      "inputs": [],
      "name": "callbackGasLimit",
      "outputs": [
        {
          "internalType": "uint32",
          "name": "",
          "type": "uint32"
        }
      ],
      "stateMutability": "view",
      "type": "function",
      "constant": true
    },
    {
      "inputs": [],
      "name": "numWords",
      "outputs": [
        {
          "internalType": "uint32",
          "name": "",
          "type": "uint32"
        }
      ],
      "stateMutability": "view",
      "type": "function",
      "constant": true
    },
    {
      "inputs": [],
      "name": "owner",
      "outputs": [
        {
          "internalType": "address",
          "name": "",
          "type": "address"
        }
      ],
      "stateMutability": "view",
      "type": "function",
      "constant": true
    },
    {
      "inputs": [],
      "name": "range",
      "outputs": [
        {
          "internalType": "uint32",
          "name": "",
          "type": "uint32"
        }
      ],
      "stateMutability": "view",
      "type": "function",
      "constant": true
    },
    {
      "inputs": [
        {
          "internalType": "uint256",
          "name": "requestId",
          "type": "uint256"
        },
        {
          "internalType": "uint256[]",
          "name": "randomWords",
          "type": "uint256[]"
        }
      ],
      "name": "rawFulfillRandomWords",
      "outputs": [],
      "stateMutability": "nonpayable",
      "type": "function"
    },
    {
      "inputs": [],
      "name": "requestConfirmations",
      "outputs": [
        {
          "internalType": "uint16",
          "name": "",
          "type": "uint16"
        }
      ],
      "stateMutability": "view",
      "type": "function",
      "constant": true
    },
    {
      "inputs": [],
      "name": "s_keyHash",
      "outputs": [
        {
          "internalType": "bytes32",
          "name": "",
          "type": "bytes32"
        }
      ],
      "stateMutability": "view",
      "type": "function",
      "constant": true
    },
    {
      "inputs": [
        {
          "internalType": "address",
          "name": "",
          "type": "address"
        },
        {
          "internalType": "uint256",
          "name": "",
          "type": "uint256"
        }
      ],
      "name": "s_results",
      "outputs": [
        {
          "internalType": "uint256",
          "name": "",
          "type": "uint256"
        }
      ],
      "stateMutability": "view",
      "type": "function",
      "constant": true
    },
    {
      "inputs": [],
      "name": "s_subscriptionId",
      "outputs": [
        {
          "internalType": "uint256",
          "name": "",
          "type": "uint256"
        }
      ],
      "stateMutability": "view",
      "type": "function",
      "constant": true
    },
    {
      "inputs": [],
      "name": "s_vrfCoordinator",
      "outputs": [
        {
          "internalType": "contract IVRFCoordinatorV2Plus",
          "name": "",
          "type": "address"
        }
      ],
      "stateMutability": "view",
      "type": "function",
      "constant": true
    },
    {
      "inputs": [
        {
          "internalType": "address",
          "name": "_vrfCoordinator",
          "type": "address"
        }
      ],
      "name": "setCoordinator",
      "outputs": [],
      "stateMutability": "nonpayable",
      "type": "function"
    },
    {
      "inputs": [
        {
          "internalType": "address",
          "name": "to",
          "type": "address"
        }
      ],
      "name": "transferOwnership",
      "outputs": [],
      "stateMutability": "nonpayable",
      "type": "function"
    },
    {
      "inputs": [
        {
          "internalType": "address",
          "name": "",
          "type": "address"
        }
      ],
      "name": "users",
      "outputs": [
        {
          "internalType": "address",
          "name": "userAddress",
          "type": "address"
        },
        {
          "internalType": "string",
          "name": "username",
          "type": "string"
        },
        {
          "internalType": "uint256",
          "name": "balance",
          "type": "uint256"
        },
        {
          "internalType": "bool",
          "name": "exists",
          "type": "bool"
        }
      ],
      "stateMutability": "view",
      "type": "function",
      "constant": true
    },
    {
      "inputs": [],
      "name": "vrfCoordinator",
      "outputs": [
        {
          "internalType": "address",
          "name": "",
          "type": "address"
        }
      ],
      "stateMutability": "view",
      "type": "function",
      "constant": true
    },
    {
      "inputs": [
        {
          "internalType": "string",
          "name": "_username",
          "type": "string"
        }
      ],
      "name": "registerUser",
      "outputs": [],
      "stateMutability": "nonpayable",
      "type": "function"
    },
    {
      "inputs": [],
      "name": "getRandom",
      "outputs": [
        {
          "internalType": "uint256[]",
          "name": "",
          "type": "uint256[]"
        }
      ],
      "stateMutability": "view",
      "type": "function",
      "constant": true
    },
    {
      "inputs": [],
      "name": "addEthers",
      "outputs": [],
      "stateMutability": "payable",
      "type": "function",
      "payable": true
    },
    {
      "inputs": [
        {
          "internalType": "uint256",
          "name": "amount",
          "type": "uint256"
        },
        {
          "internalType": "bool",
          "name": "isAdd",
          "type": "bool"
        }
      ],
      "name": "updateBalance",
      "outputs": [],
      "stateMutability": "nonpayable",
      "type": "function"
    },
    {
      "inputs": [],
      "name": "getBalance",
      "outputs": [
        {
          "internalType": "uint256",
          "name": "",
          "type": "uint256"
        }
      ],
      "stateMutability": "view",
      "type": "function",
      "constant": true
    },
    {
      "inputs": [
        {
          "internalType": "uint256",
          "name": "_amount",
          "type": "uint256"
        }
      ],
      "name": "withdrawBalance",
      "outputs": [],
      "stateMutability": "nonpayable",
      "type": "function"
    },
    {
      "inputs": [
        {
          "internalType": "address",
          "name": "roller",
          "type": "address"
        },
        {
          "internalType": "uint32",
          "name": "words",
          "type": "uint32"
        },
        {
          "internalType": "uint32",
          "name": "Range",
          "type": "uint32"
        }
      ],
      "name": "rollDice",
      "outputs": [
        {
          "internalType": "uint256",
          "name": "requestId",
          "type": "uint256"
        }
      ],
      "stateMutability": "nonpayable",
      "type": "function"
    }
  ],
  "bytecode": "0x6080604052739ddfaca8183c41ad55329bdeed9f6a8d53168b1b60055f6101000a81548173ffffffffffffffffffffffffffffffffffffffff021916908373ffffffffffffffffffffffffffffffffffffffff1602179055507f787d74caea10b2b357790d5b5247c2f63d1d91572a9846f780606e4d953677ae5f1b600655620f424060075f6101000a81548163ffffffff021916908363ffffffff1602179055506003600760046101000a81548161ffff021916908361ffff1602179055506001600760066101000a81548163ffffffff021916908363ffffffff16021790555060016007600a6101000a81548163ffffffff021916908363ffffffff1602179055503480156200010f575f80fd5b5060405162002d2c38038062002d2c833981810160405281019062000135919062000471565b60055f9054906101000a900473ffffffffffffffffffffffffffffffffffffffff1633805f8073ffffffffffffffffffffffffffffffffffffffff168273ffffffffffffffffffffffffffffffffffffffff1603620001cb576040517f08c379a0000000000000000000000000000000000000000000000000000000008152600401620001c290620004ff565b60405180910390fd5b815f806101000a81548173ffffffffffffffffffffffffffffffffffffffff021916908373ffffffffffffffffffffffffffffffffffffffff1602179055505f73ffffffffffffffffffffffffffffffffffffffff168173ffffffffffffffffffffffffffffffffffffffff161462000250576200024f816200030860201b60201c565b5b5050505f73ffffffffffffffffffffffffffffffffffffffff168173ffffffffffffffffffffffffffffffffffffffff1603620002b9576040517fd92e233d00000000000000000000000000000000000000000000000000000000815260040160405180910390fd5b8060025f6101000a81548173ffffffffffffffffffffffffffffffffffffffff021916908373ffffffffffffffffffffffffffffffffffffffff1602179055505080600481905550506200058d565b3373ffffffffffffffffffffffffffffffffffffffff168173ffffffffffffffffffffffffffffffffffffffff160362000379576040517f08c379a000000000000000000000000000000000000000000000000000000000815260040162000370906200056d565b60405180910390fd5b8060015f6101000a81548173ffffffffffffffffffffffffffffffffffffffff021916908373ffffffffffffffffffffffffffffffffffffffff1602179055508073ffffffffffffffffffffffffffffffffffffffff165f8054906101000a900473ffffffffffffffffffffffffffffffffffffffff1673ffffffffffffffffffffffffffffffffffffffff167fed8889f560326eb138920d842192f0eb3dd22b4f139c87a2c57538e05bae127860405160405180910390a350565b5f80fd5b5f819050919050565b6200044d8162000439565b811462000458575f80fd5b50565b5f815190506200046b8162000442565b92915050565b5f6020828403121562000489576200048862000435565b5b5f62000498848285016200045b565b91505092915050565b5f82825260208201905092915050565b7f43616e6e6f7420736574206f776e657220746f207a65726f00000000000000005f82015250565b5f620004e7601883620004a1565b9150620004f482620004b1565b602082019050919050565b5f6020820190508181035f8301526200051881620004d9565b9050919050565b7f43616e6e6f74207472616e7366657220746f2073656c660000000000000000005f82015250565b5f62000555601783620004a1565b915062000562826200051f565b602082019050919050565b5f6020820190508181035f830152620005868162000547565b9050919050565b612791806200059b5f395ff3fe608060405260043610610134575f3560e01c80638ea98117116100aa578063b0fb162f1161006e578063b0fb162f146103c5578063da76d5cd146103ef578063e54ebe6114610417578063e97206a91461043f578063ec33683f14610469578063f2fde38b146104a557610134565b80638ea98117146102e05780639eccacf614610308578063a3e56fa814610332578063a87430ba1461035c578063aacc5a171461039b57610134565b806345bb327b116100fc57806345bb327b146101fa578063704f1b941461022457806379ba50971461024c5780637ccfd7fc146102625780638ac000211461028c5780638da5cb5b146102b657610134565b806312065fe0146101385780631fe543e31461016257806324f746971461018a5780633d9e5b15146101b457806340d66d7b146101f0575b5f80fd5b348015610143575f80fd5b5061014c6104cd565b6040516101599190611715565b60405180910390f35b34801561016d575f80fd5b50610188600480360381019061018391906117ca565b610514565b005b348015610195575f80fd5b5061019e6105d8565b6040516101ab9190611845565b60405180910390f35b3480156101bf575f80fd5b506101da60048036038101906101d591906118b8565b6105ed565b6040516101e79190611715565b60405180910390f35b6101f8610618565b005b348015610205575f80fd5b5061020e610670565b60405161021b919061190e565b60405180910390f35b34801561022f575f80fd5b5061024a60048036038101906102459190611a5f565b610676565b005b348015610257575f80fd5b50610260610803565b005b34801561026d575f80fd5b50610276610992565b6040516102839190611845565b60405180910390f35b348015610297575f80fd5b506102a06109a8565b6040516102ad9190611715565b60405180910390f35b3480156102c1575f80fd5b506102ca6109ae565b6040516102d79190611ab5565b60405180910390f35b3480156102eb575f80fd5b5061030660048036038101906103019190611ace565b6109d5565b005b348015610313575f80fd5b5061031c610bb2565b6040516103299190611b54565b60405180910390f35b34801561033d575f80fd5b50610346610bd7565b6040516103539190611ab5565b60405180910390f35b348015610367575f80fd5b50610382600480360381019061037d9190611ace565b610bfc565b6040516103929493929190611c01565b60405180910390f35b3480156103a6575f80fd5b506103af610cd9565b6040516103bc9190611d02565b60405180910390f35b3480156103d0575f80fd5b506103d9610d6a565b6040516103e69190611d3e565b60405180910390f35b3480156103fa575f80fd5b5061041560048036038101906104109190611d57565b610d7e565b005b348015610422575f80fd5b5061043d60048036038101906104389190611dac565b610e9e565b005b34801561044a575f80fd5b50610453610f5a565b6040516104609190611845565b60405180910390f35b348015610474575f80fd5b5061048f600480360381019061048a9190611e14565b610f70565b60405161049c9190611715565b60405180910390f35b3480156104b0575f80fd5b506104cb60048036038101906104c69190611ace565b6111bf565b005b5f60035f3373ffffffffffffffffffffffffffffffffffffffff1673ffffffffffffffffffffffffffffffffffffffff1681526020019081526020015f2060020154905090565b60025f9054906101000a900473ffffffffffffffffffffffffffffffffffffffff1673ffffffffffffffffffffffffffffffffffffffff163373ffffffffffffffffffffffffffffffffffffffff16146105c8573360025f9054906101000a900473ffffffffffffffffffffffffffffffffffffffff166040517f1cf993f40000000000000000000000000000000000000000000000000000000081526004016105bf929190611e64565b60405180910390fd5b6105d38383836111d3565b505050565b60075f9054906101000a900463ffffffff1681565b6009602052815f5260405f208181548110610606575f80fd5b905f5260205f20015f91509150505481565b3460035f3373ffffffffffffffffffffffffffffffffffffffff1673ffffffffffffffffffffffffffffffffffffffff1681526020019081526020015f206002015f8282546106679190611eb8565b92505081905550565b60065481565b60035f3373ffffffffffffffffffffffffffffffffffffffff1673ffffffffffffffffffffffffffffffffffffffff1681526020019081526020015f206003015f9054906101000a900460ff1615610703576040517f08c379a00000000000000000000000000000000000000000000000000000000081526004016106fa90611f35565b60405180910390fd5b60405180608001604052803373ffffffffffffffffffffffffffffffffffffffff1681526020018281526020015f81526020016001151581525060035f3373ffffffffffffffffffffffffffffffffffffffff1673ffffffffffffffffffffffffffffffffffffffff1681526020019081526020015f205f820151815f015f6101000a81548173ffffffffffffffffffffffffffffffffffffffff021916908373ffffffffffffffffffffffffffffffffffffffff16021790555060208201518160010190816107d39190612144565b50604082015181600201556060820151816003015f6101000a81548160ff02191690831515021790555090505050565b60015f9054906101000a900473ffffffffffffffffffffffffffffffffffffffff1673ffffffffffffffffffffffffffffffffffffffff163373ffffffffffffffffffffffffffffffffffffffff1614610892576040517f08c379a00000000000000000000000000000000000000000000000000000000081526004016108899061225d565b60405180910390fd5b5f805f9054906101000a900473ffffffffffffffffffffffffffffffffffffffff169050335f806101000a81548173ffffffffffffffffffffffffffffffffffffffff021916908373ffffffffffffffffffffffffffffffffffffffff1602179055505f60015f6101000a81548173ffffffffffffffffffffffffffffffffffffffff021916908373ffffffffffffffffffffffffffffffffffffffff1602179055503373ffffffffffffffffffffffffffffffffffffffff168173ffffffffffffffffffffffffffffffffffffffff167f8be0079c531659141344cd1fd0a4f28419497f9722a3daafe3b4186f6b6457e060405160405180910390a350565b600760069054906101000a900463ffffffff1681565b60045481565b5f805f9054906101000a900473ffffffffffffffffffffffffffffffffffffffff16905090565b6109dd6109ae565b73ffffffffffffffffffffffffffffffffffffffff163373ffffffffffffffffffffffffffffffffffffffff1614158015610a65575060025f9054906101000a900473ffffffffffffffffffffffffffffffffffffffff1673ffffffffffffffffffffffffffffffffffffffff163373ffffffffffffffffffffffffffffffffffffffff1614155b15610ad35733610a736109ae565b60025f9054906101000a900473ffffffffffffffffffffffffffffffffffffffff166040517f061db9c1000000000000000000000000000000000000000000000000000000008152600401610aca9392919061227b565b60405180910390fd5b5f73ffffffffffffffffffffffffffffffffffffffff168173ffffffffffffffffffffffffffffffffffffffff1603610b38576040517fd92e233d00000000000000000000000000000000000000000000000000000000815260040160405180910390fd5b8060025f6101000a81548173ffffffffffffffffffffffffffffffffffffffff021916908373ffffffffffffffffffffffffffffffffffffffff1602179055507fd1a6a14209a385a964d036e404cb5cfb71f4000cdb03c9366292430787261be681604051610ba79190611ab5565b60405180910390a150565b60025f9054906101000a900473ffffffffffffffffffffffffffffffffffffffff1681565b60055f9054906101000a900473ffffffffffffffffffffffffffffffffffffffff1681565b6003602052805f5260405f205f91509050805f015f9054906101000a900473ffffffffffffffffffffffffffffffffffffffff1690806001018054610c4090611f80565b80601f0160208091040260200160405190810160405280929190818152602001828054610c6c90611f80565b8015610cb75780601f10610c8e57610100808354040283529160200191610cb7565b820191905f5260205f20905b815481529060010190602001808311610c9a57829003601f168201915b505050505090806002015490806003015f9054906101000a900460ff16905084565b606060095f3373ffffffffffffffffffffffffffffffffffffffff1673ffffffffffffffffffffffffffffffffffffffff1681526020019081526020015f20805480602002602001604051908101604052809291908181526020018280548015610d6057602002820191905f5260205f20905b815481526020019060010190808311610d4c575b5050505050905090565b600760049054906101000a900461ffff1681565b8060035f3373ffffffffffffffffffffffffffffffffffffffff1673ffffffffffffffffffffffffffffffffffffffff1681526020019081526020015f20600201541015610e01576040517f08c379a0000000000000000000000000000000000000000000000000000000008152600401610df8906122fa565b60405180910390fd5b8060035f3373ffffffffffffffffffffffffffffffffffffffff1673ffffffffffffffffffffffffffffffffffffffff1681526020019081526020015f206002015f828254610e509190612318565b925050819055503373ffffffffffffffffffffffffffffffffffffffff166108fc8290811502906040515f60405180830381858888f19350505050158015610e9a573d5f803e3d5ffd5b5050565b8015610eff578160035f3373ffffffffffffffffffffffffffffffffffffffff1673ffffffffffffffffffffffffffffffffffffffff1681526020019081526020015f206002015f828254610ef39190611eb8565b92505081905550610f56565b8160035f3373ffffffffffffffffffffffffffffffffffffffff1673ffffffffffffffffffffffffffffffffffffffff1681526020019081526020015f206002015f828254610f4e9190612318565b925050819055505b5050565b6007600a9054906101000a900463ffffffff1681565b5f610f79611446565b816007600a6101000a81548163ffffffff021916908363ffffffff16021790555082600760066101000a81548163ffffffff021916908363ffffffff16021790555060025f9054906101000a900473ffffffffffffffffffffffffffffffffffffffff1673ffffffffffffffffffffffffffffffffffffffff16639b1c385e6040518060c0016040528060065481526020016004548152602001600760049054906101000a900461ffff1661ffff16815260200160075f9054906101000a900463ffffffff1663ffffffff168152602001600760069054906101000a900463ffffffff1663ffffffff16815260200161108160405180602001604052805f15158152506114d5565b8152506040518263ffffffff1660e01b81526004016110a09190612450565b6020604051808303815f875af11580156110bc573d5f803e3d5ffd5b505050506040513d601f19601f820116820180604052508101906110e09190612484565b90508360085f8381526020019081526020015f205f6101000a81548173ffffffffffffffffffffffffffffffffffffffff021916908373ffffffffffffffffffffffffffffffffffffffff160217905550602a600a5f8673ffffffffffffffffffffffffffffffffffffffff1673ffffffffffffffffffffffffffffffffffffffff1681526020019081526020015f20819055508373ffffffffffffffffffffffffffffffffffffffff16817f3e7fdeab84c01ce5308321caa0b460e1c4ec3c7099223d79634d9a71d99932e360405160405180910390a39392505050565b6111c7611446565b6111d08161156d565b50565b5f60085f8581526020019081526020015f205f9054906101000a900473ffffffffffffffffffffffffffffffffffffffff1690505f67ffffffffffffffff8111156112215761122061193b565b5b60405190808252806020026020018201604052801561124f5781602001602082028036833780820191505090505b5060095f8373ffffffffffffffffffffffffffffffffffffffff1673ffffffffffffffffffffffffffffffffffffffff1681526020019081526020015f2090805190602001906112a0929190611697565b505f5b600760069054906101000a900463ffffffff1663ffffffff1681101561137e575f60016007600a9054906101000a900463ffffffff1663ffffffff168686858181106112f2576112f16124af565b5b905060200201356113039190612509565b61130d9190611eb8565b905060095f8473ffffffffffffffffffffffffffffffffffffffff1673ffffffffffffffffffffffffffffffffffffffff1681526020019081526020015f2081908060018154018082558091505060019003905f5260205f20015f90919091909150555080806001019150506112a3565b505f600a5f8373ffffffffffffffffffffffffffffffffffffffff1673ffffffffffffffffffffffffffffffffffffffff1681526020019081526020015f208190555060095f8273ffffffffffffffffffffffffffffffffffffffff1673ffffffffffffffffffffffffffffffffffffffff1681526020019081526020015f2060405161140b9190612633565b6040518091039020847fbb49a05d9ec394e79a221aa845d28284598dad4c765b725d0cd3054f801c797260405160405180910390a350505050565b5f8054906101000a900473ffffffffffffffffffffffffffffffffffffffff1673ffffffffffffffffffffffffffffffffffffffff163373ffffffffffffffffffffffffffffffffffffffff16146114d3576040517f08c379a00000000000000000000000000000000000000000000000000000000081526004016114ca90612693565b60405180910390fd5b565b60607f92fd13387c7fe7befbc38d303d6468778fb9731bc4583f17d92989c6fcfdeaaa8260405160240161150991906126da565b604051602081830303815290604052907bffffffffffffffffffffffffffffffffffffffffffffffffffffffff19166020820180517bffffffffffffffffffffffffffffffffffffffffffffffffffffffff83818316178352505050509050919050565b3373ffffffffffffffffffffffffffffffffffffffff168173ffffffffffffffffffffffffffffffffffffffff16036115db576040517f08c379a00000000000000000000000000000000000000000000000000000000081526004016115d29061273d565b60405180910390fd5b8060015f6101000a81548173ffffffffffffffffffffffffffffffffffffffff021916908373ffffffffffffffffffffffffffffffffffffffff1602179055508073ffffffffffffffffffffffffffffffffffffffff165f8054906101000a900473ffffffffffffffffffffffffffffffffffffffff1673ffffffffffffffffffffffffffffffffffffffff167fed8889f560326eb138920d842192f0eb3dd22b4f139c87a2c57538e05bae127860405160405180910390a350565b828054828255905f5260205f209081019282156116d1579160200282015b828111156116d05782518255916020019190600101906116b5565b5b5090506116de91906116e2565b5090565b5b808211156116f9575f815f9055506001016116e3565b5090565b5f819050919050565b61170f816116fd565b82525050565b5f6020820190506117285f830184611706565b92915050565b5f604051905090565b5f80fd5b5f80fd5b611748816116fd565b8114611752575f80fd5b50565b5f813590506117638161173f565b92915050565b5f80fd5b5f80fd5b5f80fd5b5f8083601f84011261178a57611789611769565b5b8235905067ffffffffffffffff8111156117a7576117a661176d565b5b6020830191508360208202830111156117c3576117c2611771565b5b9250929050565b5f805f604084860312156117e1576117e0611737565b5b5f6117ee86828701611755565b935050602084013567ffffffffffffffff81111561180f5761180e61173b565b5b61181b86828701611775565b92509250509250925092565b5f63ffffffff82169050919050565b61183f81611827565b82525050565b5f6020820190506118585f830184611836565b92915050565b5f73ffffffffffffffffffffffffffffffffffffffff82169050919050565b5f6118878261185e565b9050919050565b6118978161187d565b81146118a1575f80fd5b50565b5f813590506118b28161188e565b92915050565b5f80604083850312156118ce576118cd611737565b5b5f6118db858286016118a4565b92505060206118ec85828601611755565b9150509250929050565b5f819050919050565b611908816118f6565b82525050565b5f6020820190506119215f8301846118ff565b92915050565b5f80fd5b5f601f19601f8301169050919050565b7f4e487b71000000000000000000000000000000000000000000000000000000005f52604160045260245ffd5b6119718261192b565b810181811067ffffffffffffffff821117156119905761198f61193b565b5b80604052505050565b5f6119a261172e565b90506119ae8282611968565b919050565b5f67ffffffffffffffff8211156119cd576119cc61193b565b5b6119d68261192b565b9050602081019050919050565b828183375f83830152505050565b5f611a036119fe846119b3565b611999565b905082815260208101848484011115611a1f57611a1e611927565b5b611a2a8482856119e3565b509392505050565b5f82601f830112611a4657611a45611769565b5b8135611a568482602086016119f1565b91505092915050565b5f60208284031215611a7457611a73611737565b5b5f82013567ffffffffffffffff811115611a9157611a9061173b565b5b611a9d84828501611a32565b91505092915050565b611aaf8161187d565b82525050565b5f602082019050611ac85f830184611aa6565b92915050565b5f60208284031215611ae357611ae2611737565b5b5f611af0848285016118a4565b91505092915050565b5f819050919050565b5f611b1c611b17611b128461185e565b611af9565b61185e565b9050919050565b5f611b2d82611b02565b9050919050565b5f611b3e82611b23565b9050919050565b611b4e81611b34565b82525050565b5f602082019050611b675f830184611b45565b92915050565b5f81519050919050565b5f82825260208201905092915050565b5f5b83811015611ba4578082015181840152602081019050611b89565b5f8484015250505050565b5f611bb982611b6d565b611bc38185611b77565b9350611bd3818560208601611b87565b611bdc8161192b565b840191505092915050565b5f8115159050919050565b611bfb81611be7565b82525050565b5f608082019050611c145f830187611aa6565b8181036020830152611c268186611baf565b9050611c356040830185611706565b611c426060830184611bf2565b95945050505050565b5f81519050919050565b5f82825260208201905092915050565b5f819050602082019050919050565b611c7d816116fd565b82525050565b5f611c8e8383611c74565b60208301905092915050565b5f602082019050919050565b5f611cb082611c4b565b611cba8185611c55565b9350611cc583611c65565b805f5b83811015611cf5578151611cdc8882611c83565b9750611ce783611c9a565b925050600181019050611cc8565b5085935050505092915050565b5f6020820190508181035f830152611d1a8184611ca6565b905092915050565b5f61ffff82169050919050565b611d3881611d22565b82525050565b5f602082019050611d515f830184611d2f565b92915050565b5f60208284031215611d6c57611d6b611737565b5b5f611d7984828501611755565b91505092915050565b611d8b81611be7565b8114611d95575f80fd5b50565b5f81359050611da681611d82565b92915050565b5f8060408385031215611dc257611dc1611737565b5b5f611dcf85828601611755565b9250506020611de085828601611d98565b9150509250929050565b611df381611827565b8114611dfd575f80fd5b50565b5f81359050611e0e81611dea565b92915050565b5f805f60608486031215611e2b57611e2a611737565b5b5f611e38868287016118a4565b9350506020611e4986828701611e00565b9250506040611e5a86828701611e00565b9150509250925092565b5f604082019050611e775f830185611aa6565b611e846020830184611aa6565b9392505050565b7f4e487b71000000000000000000000000000000000000000000000000000000005f52601160045260245ffd5b5f611ec2826116fd565b9150611ecd836116fd565b9250828201905080821115611ee557611ee4611e8b565b5b92915050565b7f5573657220616c726561647920657869737473000000000000000000000000005f82015250565b5f611f1f601383611b77565b9150611f2a82611eeb565b602082019050919050565b5f6020820190508181035f830152611f4c81611f13565b9050919050565b7f4e487b71000000000000000000000000000000000000000000000000000000005f52602260045260245ffd5b5f6002820490506001821680611f9757607f821691505b602082108103611faa57611fa9611f53565b5b50919050565b5f819050815f5260205f209050919050565b5f6020601f8301049050919050565b5f82821b905092915050565b5f6008830261200c7fffffffffffffffffffffffffffffffffffffffffffffffffffffffffffffffff82611fd1565b6120168683611fd1565b95508019841693508086168417925050509392505050565b5f61204861204361203e846116fd565b611af9565b6116fd565b9050919050565b5f819050919050565b6120618361202e565b61207561206d8261204f565b848454611fdd565b825550505050565b5f90565b61208961207d565b612094818484612058565b505050565b5b818110156120b7576120ac5f82612081565b60018101905061209a565b5050565b601f8211156120fc576120cd81611fb0565b6120d684611fc2565b810160208510156120e5578190505b6120f96120f185611fc2565b830182612099565b50505b505050565b5f82821c905092915050565b5f61211c5f1984600802612101565b1980831691505092915050565b5f612134838361210d565b9150826002028217905092915050565b61214d82611b6d565b67ffffffffffffffff8111156121665761216561193b565b5b6121708254611f80565b61217b8282856120bb565b5f60209050601f8311600181146121ac575f841561219a578287015190505b6121a48582612129565b86555061220b565b601f1984166121ba86611fb0565b5f5b828110156121e1578489015182556001820191506020850194506020810190506121bc565b868310156121fe57848901516121fa601f89168261210d565b8355505b6001600288020188555050505b505050505050565b7f4d7573742062652070726f706f736564206f776e6572000000000000000000005f82015250565b5f612247601683611b77565b915061225282612213565b602082019050919050565b5f6020820190508181035f8301526122748161223b565b9050919050565b5f60608201905061228e5f830186611aa6565b61229b6020830185611aa6565b6122a86040830184611aa6565b949350505050565b7f496e73756666696369656e742062616c616e63650000000000000000000000005f82015250565b5f6122e4601483611b77565b91506122ef826122b0565b602082019050919050565b5f6020820190508181035f830152612311816122d8565b9050919050565b5f612322826116fd565b915061232d836116fd565b925082820390508181111561234557612344611e8b565b5b92915050565b612354816118f6565b82525050565b61236381611d22565b82525050565b61237281611827565b82525050565b5f81519050919050565b5f82825260208201905092915050565b5f61239c82612378565b6123a68185612382565b93506123b6818560208601611b87565b6123bf8161192b565b840191505092915050565b5f60c083015f8301516123df5f86018261234b565b5060208301516123f26020860182611c74565b506040830151612405604086018261235a565b5060608301516124186060860182612369565b50608083015161242b6080860182612369565b5060a083015184820360a08601526124438282612392565b9150508091505092915050565b5f6020820190508181035f83015261246881846123ca565b905092915050565b5f8151905061247e8161173f565b92915050565b5f6020828403121561249957612498611737565b5b5f6124a684828501612470565b91505092915050565b7f4e487b71000000000000000000000000000000000000000000000000000000005f52603260045260245ffd5b7f4e487b71000000000000000000000000000000000000000000000000000000005f52601260045260245ffd5b5f612513826116fd565b915061251e836116fd565b92508261252e5761252d6124dc565b5b828206905092915050565b5f81549050919050565b5f81905092915050565b5f819050815f5260205f209050919050565b612568816116fd565b82525050565b5f612579838361255f565b60208301905092915050565b5f815f1c9050919050565b5f819050919050565b5f6125ab6125a683612585565b612590565b9050919050565b5f6125bd8254612599565b9050919050565b5f600182019050919050565b5f6125da82612539565b6125e48185612543565b93506125ef8361254d565b805f5b8381101561262657612603826125b2565b61260d888261256e565b9750612618836125c4565b9250506001810190506125f2565b5085935050505092915050565b5f61263e82846125d0565b915081905092915050565b7f4f6e6c792063616c6c61626c65206279206f776e6572000000000000000000005f82015250565b5f61267d601683611b77565b915061268882612649565b602082019050919050565b5f6020820190508181035f8301526126aa81612671565b9050919050565b6126ba81611be7565b82525050565b602082015f8201516126d45f8501826126b1565b50505050565b5f6020820190506126ed5f8301846126c0565b92915050565b7f43616e6e6f74207472616e7366657220746f2073656c660000000000000000005f82015250565b5f612727601783611b77565b9150612732826126f3565b602082019050919050565b5f6020820190508181035f8301526127548161271b565b905091905056fea26469706673582212204363f24bd94da6cc33a33dae9f778137c4908ac63b0367e30dfeaa4dd9add4dd64736f6c63430008180033",
  "immutableReferences": {},
  "source": "// SPDX-License-Identifier: MIT\r\npragma solidity 0.8.24;\r\n\r\nimport {VRFConsumerBaseV2Plus} from \"@chainlink/contracts/src/v0.8/vrf/dev/VRFConsumerBaseV2Plus.sol\";\r\nimport {VRFV2PlusClient} from \"@chainlink/contracts/src/v0.8/vrf/dev/libraries/VRFV2PlusClient.sol\";\r\n\r\n/**\r\n * @notice A Chainlink VRF consumer which uses randomness to mimic the rolling\r\n * of a 20 sided dice\r\n */\r\n\r\n/**\r\n * Request testnet LINK and ETH here: https://faucets.chain.link/\r\n * Find information on LINK Token Contracts and get the latest ETH and LINK faucets here: https://docs.chain.link/docs/link-token-contracts/\r\n */\r\n\r\n/**\r\n * THIS IS AN EXAMPLE CONTRACT THAT USES HARDCODED VALUES FOR CLARITY.\r\n * THIS IS AN EXAMPLE CONTRACT THAT USES UN-AUDITED CODE.\r\n * DO NOT USE THIS CODE IN PRODUCTION.\r\n */\r\n\r\ncontract vrfFinal is VRFConsumerBaseV2Plus {\r\n    struct User {\r\n        address userAddress;\r\n        string username;\r\n        uint balance;\r\n        bool exists;\r\n    }\r\n\r\n    mapping(address => User) public users;\r\n\r\n    uint256 private constant ROLL_IN_PROGRESS = 42;\r\n\r\n    // Your subscription ID.\r\n    uint256 public s_subscriptionId;\r\n\r\n    // Sepolia coordinator. For other networks,\r\n    // see https://docs.chain.link/vrf/v2-5/supported-networks#configurations\r\n    address public vrfCoordinator = 0x9DdfaCa8183c41ad55329BdeeD9F6A8d53168B1B;\r\n\r\n    // The gas lane to use, which specifies the maximum gas price to bump to.\r\n    // For a list of available gas lanes on each network,\r\n    // see https://docs.chain.link/vrf/v2-5/supported-networks#configurations\r\n    bytes32 public s_keyHash =\r\n        0x787d74caea10b2b357790d5b5247c2f63d1d91572a9846f780606e4d953677ae;\r\n\r\n    // Depends on the number of requested values that you want sent to the\r\n    // fulfillRandomWords() function. Storing each word costs about 20,000 gas,\r\n    // so 40,000 is a safe default for this example contract. Test and adjust\r\n    // this limit based on the network that you select, the size of the request,\r\n    // and the processing of the callback request in the fulfillRandomWords()\r\n    // function.\r\n    uint32 public callbackGasLimit = 1000000;\r\n\r\n    // The default is 3, but you can set this higher.\r\n    uint16 public requestConfirmations = 3;\r\n\r\n    // For this example, retrieve 1 random value in one request.\r\n    // Cannot exceed VRFCoordinatorV2_5.MAX_NUM_WORDS.\r\n    uint32 public numWords = 1;\r\n    uint32 public range = 1;\r\n\r\n    // map rollers to requestIds\r\n    mapping(uint256 => address) private s_rollers;\r\n    // map vrf results to rollers\r\n    mapping(address => uint256[]) public s_results;\r\n    mapping(address => uint256) private s_flag;\r\n\r\n    event DiceRolled(uint256 indexed requestId, address indexed roller);\r\n    event DiceLanded(uint256 indexed requestId, uint256[] indexed result);\r\n\r\n    /**\r\n     * @notice Constructor inherits VRFConsumerBaseV2Plus\r\n     *\r\n     * @dev NETWORK: Sepolia\r\n     *\r\n     * @param subscriptionId subscription ID that this consumer contract can use\r\n     */\r\n    constructor(uint256 subscriptionId) VRFConsumerBaseV2Plus(vrfCoordinator) {\r\n        s_subscriptionId = subscriptionId;\r\n    }\r\n\r\n    function registerUser(string memory _username) external {\r\n        require(!users[msg.sender].exists, \"User already exists\");\r\n        users[msg.sender] = User(msg.sender, _username, 0, true);\r\n    }\r\n\r\n    function getRandom() public view returns(uint256[] memory) {\r\n        return s_results[msg.sender];\r\n    }\r\n\r\n    function addEthers() external payable {\r\n        users[msg.sender].balance += msg.value;\r\n    }\r\n\r\n    function updateBalance(uint256 amount,bool isAdd) external {\r\n        if(isAdd) {\r\n            users[msg.sender].balance += amount;\r\n        } else {\r\n            users[msg.sender].balance -= amount;\r\n        }\r\n    }\r\n\r\n    function getBalance() public view returns (uint256) {\r\n        return users[msg.sender].balance;\r\n    }\r\n    \r\n    function withdrawBalance(uint256 _amount) external {\r\n        require(users[msg.sender].balance >= _amount, \"Insufficient balance\");\r\n        users[msg.sender].balance -= _amount;\r\n        payable(msg.sender).transfer(_amount);\r\n    }\r\n\r\n\r\n    /**\r\n     * @notice Requests randomness\r\n     * @dev Warning: if the VRF response is delayed, avoid calling requestRandomness repeatedly\r\n     * as that would give miners/VRF operators latitude about which VRF response arrives first.\r\n     * @dev You must review your implementation details with extreme care.\r\n     *\r\n     * @param roller address of the roller\r\n     */\r\n    \r\n    function rollDice(\r\n        address roller, uint32 words, uint32 Range\r\n    ) public onlyOwner returns (uint256 requestId) {\r\n        range = Range;\r\n        numWords = words;\r\n        // require(s_flag[roller] == 0, \"Already rolled\");\r\n        // Will revert if subscription is not set and funded.\r\n        requestId = s_vrfCoordinator.requestRandomWords(\r\n            VRFV2PlusClient.RandomWordsRequest({\r\n                keyHash: s_keyHash,\r\n                subId: s_subscriptionId,\r\n                requestConfirmations: requestConfirmations,\r\n                callbackGasLimit: callbackGasLimit,\r\n                numWords: numWords,\r\n                extraArgs: VRFV2PlusClient._argsToBytes(\r\n                    // Set nativePayment to true to pay for VRF requests with Sepolia ETH instead of LINK\r\n                    VRFV2PlusClient.ExtraArgsV1({nativePayment: false})\r\n                )\r\n            })\r\n        );\r\n\r\n        s_rollers[requestId] = roller;\r\n        s_flag[roller] = ROLL_IN_PROGRESS;\r\n        emit DiceRolled(requestId, roller);\r\n    }\r\n\r\n    /**\r\n     * @notice Callback function used by VRF Coordinator to return the random number to this contract.\r\n     *\r\n     * @dev Some action on the contract state should be taken here, like storing the result.\r\n     * @dev WARNING: take care to avoid having multiple VRF requests in flight if their order of arrival would result\r\n     * in contract states with different outcomes. Otherwise miners or the VRF operator would could take advantage\r\n     * by controlling the order.\r\n     * @dev The VRF Coordinator will only send this function verified responses, and the parent VRFConsumerBaseV2\r\n     * contract ensures that this method only receives randomness from the designated VRFCoordinator.\r\n     *\r\n     * @param requestId uint256\r\n     * @param randomWords  uint256[] The random result returned by the oracle.\r\n     */\r\n    function fulfillRandomWords(\r\n        uint256 requestId,\r\n        uint256[] calldata randomWords\r\n    ) internal override {\r\n        address roller = s_rollers[requestId];\r\n        s_results[roller] = new uint256[](0); \r\n        // numWords = 3;\r\n        // s_results[roller].push(randomWords[0]%numWords+1);\r\n        for (uint256 i = 0; i < numWords; i++) {\r\n            uint256 num = (randomWords[i] % range) + 1;\r\n            s_results[roller].push(num);\r\n        }\r\n\r\n        // numWords = uint32(randomWords[0]);\r\n        s_flag[roller] = 0;\r\n        emit DiceLanded(requestId, s_results[roller]);\r\n    }\r\n}",
  "sourcePath": "C:\\MyFolder\\Projects\\chainlinkHack\\contracts\\vrfFinal.sol",
  "compiler": {
    "name": "solc",
    "version": "0.8.24+commit.e11b9ed9.Emscripten.clang"
  },
  "schemaVersion": "3.4.16",
  "updatedAt": "2024-05-29T17:55:04.766Z",
  "networkType": "ethereum",
  "devdoc": {
    "kind": "dev",
    "methods": {
      "constructor": {
        "details": "NETWORK: Sepolia",
        "params": {
          "subscriptionId": "subscription ID that this consumer contract can use"
        }
      },
      "rollDice(address,uint32,uint32)": {
        "details": "Warning: if the VRF response is delayed, avoid calling requestRandomness repeatedly as that would give miners/VRF operators latitude about which VRF response arrives first.You must review your implementation details with extreme care.",
        "params": {
          "roller": "address of the roller"
        }
      }
    },
    "version": 1
  },
  "userdoc": {
    "kind": "user",
    "methods": {
      "acceptOwnership()": {
        "notice": "Allows an ownership transfer to be completed by the recipient."
      },
      "constructor": {
        "notice": "Constructor inherits VRFConsumerBaseV2Plus"
      },
      "owner()": {
        "notice": "Get the current owner"
      },
      "rollDice(address,uint32,uint32)": {
        "notice": "Requests randomness"
      },
      "setCoordinator(address)": {
        "notice": "Sets the VRF Coordinator addressThis method should only be callable by the coordinator or contract owner"
      },
      "transferOwnership(address)": {
        "notice": "Allows an owner to begin transferring ownership to a new address."
      }
    },
    "notice": "THIS IS AN EXAMPLE CONTRACT THAT USES HARDCODED VALUES FOR CLARITY. THIS IS AN EXAMPLE CONTRACT THAT USES UN-AUDITED CODE. DO NOT USE THIS CODE IN PRODUCTION.",
    "version": 1
  }
}