{
  "contractName": "VRFV2PlusClient",
  "abi": [
    {
      "inputs": [],
      "name": "EXTRA_ARGS_V1_TAG",
      "outputs": [
        {
          "internalType": "bytes4",
          "name": "",
          "type": "bytes4"
        }
      ],
      "stateMutability": "view",
      "type": "function"
    }
  ],
  "bytecode": "0x60f961004d600b8282823980515f1a607314610041577f4e487b71000000000000000000000000000000000000000000000000000000005f525f60045260245ffd5b305f52607381538281f3fe73000000000000000000000000000000000000000030146080604052600436106032575f3560e01c8063f7514ab4146036575b5f80fd5b603c6050565b6040516047919060ac565b60405180910390f35b7f92fd13387c7fe7befbc38d303d6468778fb9731bc4583f17d92989c6fcfdeaaa81565b5f7fffffffff0000000000000000000000000000000000000000000000000000000082169050919050565b60a6816074565b82525050565b5f60208201905060bd5f830184609f565b9291505056fea26469706673582212204236b6b5fd241069bcdd860ba1dcc31fee8655f4171676d968acfefd41f8f29564736f6c63430008180033",
  "immutableReferences": {},
  "source": "// SPDX-License-Identifier: MIT\npragma solidity ^0.8.4;\n\n// End consumer library.\nlibrary VRFV2PlusClient {\n  // extraArgs will evolve to support new features\n  bytes4 public constant EXTRA_ARGS_V1_TAG = bytes4(keccak256(\"VRF ExtraArgsV1\"));\n  struct ExtraArgsV1 {\n    bool nativePayment;\n  }\n\n  struct RandomWordsRequest {\n    bytes32 keyHash;\n    uint256 subId;\n    uint16 requestConfirmations;\n    uint32 callbackGasLimit;\n    uint32 numWords;\n    bytes extraArgs;\n  }\n\n  function _argsToBytes(ExtraArgsV1 memory extraArgs) internal pure returns (bytes memory bts) {\n    return abi.encodeWithSelector(EXTRA_ARGS_V1_TAG, extraArgs);\n  }\n}\n",
  "sourcePath": "@chainlink\\contracts\\src\\v0.8\\vrf\\dev\\libraries\\VRFV2PlusClient.sol",
  "compiler": {
    "name": "solc",
    "version": "0.8.24+commit.e11b9ed9.Emscripten.clang"
  },
  "schemaVersion": "3.4.16",
  "updatedAt": "2024-05-29T17:54:32.717Z",
  "devdoc": {
    "kind": "dev",
    "methods": {},
    "version": 1
  },
  "userdoc": {
    "kind": "user",
    "methods": {},
    "version": 1
  }
}